:1000000045C100005EC100005CC100005AC1000093
:1000100058C1000056C1000054C1000052C1000088
:1000200050C100004EC10000D6C2000030C3000025
:1000300048C1000046C1000044C1000042C10000A8
:1000400040C100003EC100003CC100003AC10000B8
:1000500038C1000036C1000034C1000032C10000C8
:1000600030C100002EC100002CC100002AC10000D8
:1000700028C1000026C1000024C1000022C10000E8
:1000800020C100001EC100001CC100001AC10000F8
:1000900018C1000016C1000014C1000012C1000008
:1000A00010C100000EC100000CC100002452657692
:1000B0006973696F6E240000888A418284514E8979
:1000C0000000003A6040802C504F4D0000001D069B
:1000D000051037854B3F000000811B19113638523F
:1000E000450000004C16090B0E33284A0000003B67
:1000F00004070A0D0F345F0000003C1A151C0C1396
:10010000305E0000002B14081718122F2A00000080
:10011000551F212325272E310000001E20222426D2
:100120002D355600000029625C5B5A433D3E0000BD
:100130000000000000000000888A41828463428938
:100140000000003A6040802C8657590000001D06D0
:1001500005103785543F000000811B191136385DAA
:10016000450000004C16090B0E3328440000003BEC
:1001700004070A0D0F345F0000003C1A151C0C1315
:10018000305E0000002B14081718122F2A00000000
:10019000551F212325272E310000001E2022242652
:1001A0002D355600000029625C5B5A433D3E00003D
:1001B00000000000000000000100007302120002B5
:1001C00000001202220022000034023F0021000041
:1001D000240209000300000E020401030904FC01CB
:1001E0001002030904E8011212034B0065007900B4
:1001F00062006F00610072006400000010034D0097
:10020000660067004E0061006D0065000000040399
:10021000090409022200010100C0320904000001A2
:1002200003010100092111010001223F000705839C
:100230000308000105010906A101750195080507DC
:1002400019E029E715002501810295017508810350
:100250009505750105081901290591029501750398
:10026000910395067508150025680507190029688A
:100270008100C01201000200000020C0167C0400B2
:100280000101020001000001C106000011241FBE8F
:10029000CFEFDAE0DEBFCDBF11E0A0E0B1E0E4E6F1
:1002A000F9E002C005900D92A230B107D9F711E034
:1002B000A2E0B1E001C01D92AD32B107E1F7EDD08F
:1002C0004FC39ECE80E68AB980E78BB908955E98C9
:1002D00025E32A95F1F700005E9AEFE8F1E0319707
:1002E000F1F700C00000FC0120E030E088E090E081
:1002F00040E046955D985AE25A95F1F700C05D9A44
:1003000055ED5A95F1F700004C9B4068019789F72D
:1003100041932F5F3F4F2031310541F708951092EF
:10032000D8000C9400180895CF93DF93CCEAD0E066
:10033000FE018491882371F090ED980F9A3010F0AF
:100340002196F6CF803311F0835101C087E260E03F
:1003500035D1F6CFDF91CF910895E4E2F1E081E06D
:10036000E932F80721F081918823C9F3089580913B
:100370002301853019F0893111F00895D0CFD4CF01
:100380008F929F92AF92BF92CF92DF92EF92FF92A5
:100390000F931F93CF93DF9347E351E0E12CA12C00
:1003A00063E271E0F6E09F2E01E010E01092290177
:1003B000EB01E92D1992EA95E9F7DC0120E030E044
:1003C000F12CD12CBD90C0902901E8E08E2E8F0C2D
:1003D000EF2DF394EA01CE0FD11DFE01E491B0FEA2
:1003E0002AC0EE2341F1E7FF1AC0EF77E83009F1A8
:1003F00038F0E93069F0EA30F1F4EE24E3941BC000
:10040000E80102C0CC0FDD1FEA95E2F7CC2A13C049
:10041000D1E047335D0779F447EB50E0C7CFF5E013
:10042000FD1548F0CD2DD0E0CD5DDE4FE883D394AF
:1004300002C0AA24A394B694F810CACFC09229018E
:100440002F5F3F4F2031310509F0BCCFAA2011F0BA
:1004500084DF01C07BD08091220186958170E816EF
:1004600079F060E089E3DF91CF911F910F91FF90C8
:10047000EF90DF90CF90BF90AF909F908F909EC0F5
:10048000DF91CF911F910F91FF90EF90DF90CF9070
:10049000BF90AF909F908F90089580E88093610007
:1004A000109261000FDF38D04ED08823E9F32FEF90
:1004B0008BE792E9215080409040E1F700C00000B6
:1004C00080E1E2E1F1E0DF011D928A95E9F7C0E108
:1004D00082E091E0FCDE40E150E062E171E082E028
:1004E00091E031D2892B61F082E091E049DFE2E0D6
:1004F000F1E0A2E1B1E08C2F01900D928A95E1F735
:100500008FE39CE90197F1F700C00000E1CF8091F3
:10051000E80080FFFCCF089581E08093D70080EA57
:100520008093D80082E189BD09B400FEFDCF80E947
:100530008093D8001092E00010922C018CE0809300
:10054000E2007894089580912C01089580912C0107
:10055000811102C08FEF08958FB7F89493E09093C4
:10056000E9009091E4009E5C23E03091E80035FDC5
:100570000EC08FBF80912C01882361F38091E4002D
:10058000891741F38FB7F8942093E900EECF90914B
:1005900029019093F1001092F100E3E2F1E09191D2
:1005A0009093F10091E0E932F907C9F79AE390934B
:1005B000E80010922B018FBF80E00895609329011D
:1005C00080932301C3DF811105C01092290110928D
:1005D0002301BCCF08951F920F920FB60F921124E2
:1005E0008F939F93EF93FF938091E1001092E1002E
:1005F00083FF0FC01092E90091E09093EB001092FE
:10060000EC0092E29093ED0098E09093F00010924D
:100610002C0182FF33C080912C01882379F18091D5
:100620000001882359F180912A018F5F80932A016C
:10063000837021F583E08093E9008091E80085FFD5
:100640001DC080912B018F5F80932B019091000141
:10065000891314C010922B01809129018093F1001D
:100660001092F100E3E2F1E081918093F10081E0EA
:10067000E932F807C9F78AE38093E800FF91EF9128
:100680009F918F910F900FBE0F901F9018951F9202
:100690000F920FB60F921124EF92FF920F931F93B8
:1006A0002F933F934F935F936F937F938F939F937A
:1006B000AF93BF93EF93FF93CF93DF931F92CDB789
:1006C000DEB71092E9008091E80083FF21C190918C
:1006D000F1008091F1003091F1002091F100E32EC2
:1006E000F12CF22A0091F1002091F10010E0122B80
:1006F0002091F1006091F10032EF3093E8008630F4
:1007000009F046C037E087EB91E0FC014591549138
:100710004E155F0539F4FC0132964591549140170E
:10072000510721F00796315081F7F2C0FC01349651
:1007300045915491FC013696849130E0362B2F3F41
:10074000310519F010F02FEF30E0281708F4822F50
:100750003EEF9091E800292F2570D9F392FDDBC080
:10076000982F813208F090E2FA01292F222331F0EC
:1007700064916093F10021503196F8CF490F511DDB
:10078000891B3093E8008111E4CF903211F3C3C08C
:10079000853049F48EEF8093E800B9DE8E2D8068B5
:1007A0008093E300B8C0893041F5911146C0E092D2
:1007B0002C018EEF8093E80041E085E892E04093C1
:1007C000E9009C012F5F3F4FFC0154915093EB00D7
:1007D000552361F0F90124912093EC009C012D5FD9
:1007E0003F4FFC01329684918093ED004F5F45307E
:1007F00011F0C901E4CF8EE141C0883039F490385E
:1008000009F041C084DE80912C0160C0811115C0C7
:1008100099837DDE9981923851F40093E9008091AB
:10082000EB0085FB882780F91092E90001C080E089
:100830008093F1001092F10067C0282F2D7F2130A6
:1008400011F5923001F5EF2809F062C00F779FEFA4
:10085000900F943008F05CC09EEF9093E8000093F6
:10086000E900833009F454C089E18093EB0081E012
:1008700090E0002E01C0880F0A94EAF78093EA0006
:100880001092EA0048C0012B09F042C0913A09F5E4
:10089000813089F43CDE809129018093F10010922F
:1008A000F100E3E2F1E081918093F10081E0E9322F
:1008B000F807C9F729C0823021F429DE80910001B0
:1008C00005C0833029F523DE809101018093F1007A
:1008D0001BC09132E9F4893061F48091E80082FF15
:1008E000FCCF8091F100809322018BEF8093E80090
:1008F0000BC08A3029F4F092000110922B0104C041
:100900008B3031F4E09201018EEF8093E80003C058
:1009100081E28093EB000F90DF91CF91FF91EF91F7
:10092000BF91AF919F918F917F916F915F914F9107
:100930003F912F911F910F91FF90EF900F900FBE5D
:100940000F901F901895FB01DC0104C08D91019060
:10095000801921F441505040C8F7881B990B089525
:04096000F894FFCF39
:020964007D0113
:00000001FF
