:1000000029C1000042C1000040C100003EC1000003
:100010003CC100003AC1000038C1000036C10000F8
:1000200034C1000032C1000030C10000CDC2000068
:1000300037C300002AC1000028C1000026C100000B
:1000400024C1000022C1000020C100001EC1000028
:100050001CC100001AC1000018C1000016C1000038
:1000600014C1000012C1000010C100000EC1000048
:100070000CC1000000888A4182846342890000002C
:100080003A6040802C8657590000001D0605103745
:1000900085543F000000811B191136385D45000072
:1000A000004C16090B0E3328440000003B04070ADD
:1000B0000D0F345F0000003C1A151C0C13305E005D
:1000C00000002B14081718122F2A000000551F21BA
:1000D0002325272E310000001E202224262D3556F0
:1000E00000000029625C5B5A433D3E0000000000B6
:1000F0000000000000888A418284514E890000007F
:100100003A6040802C504F4D0000001D060510370E
:10011000854B3F000000811B191136385245000005
:10012000004C16090B0E33284A0000003B04070A56
:100130000D0F345F0000003C1A151C0C13305E00DC
:1001400000002B14081718122F2A000000551F2139
:100150002325272E310000001E202224262D35566F
:1001600000000029625C5B5A433D3E000000000035
:1001700000000000245265766973696F6E240000E8
:10018000010000B6011200020000C8012200220096
:1001900000EA013F00210000DA0109000300002904
:1001A0000204010309042D0210020309043F021294
:1001B000000001C106001201000200000020C0166C
:1001C0007C0400010102000109022200010100C0BB
:1001D000320904000001030101000921110100019D
:1001E000223F000705830308000105010906A1015C
:1001F00075019508050719E029E715002501810219
:1002000095017508810395057501050819012905F2
:1002100091029501750391039506750815002568EF
:100220000507190029688100C00403090410034D63
:1002300000660067004E0061006D0065000000125E
:10024000034B006500790062006F0061007200647A
:100250000000000011241FBECFEFD2E0DEBFCDBFF3
:1002600011E0A0E0B1E0E8EBF9E002C005900D92EA
:10027000A230B107D9F711E0A2E0B1E001C01D92B0
:10028000AD32B107E1F7F7D095C3BACEFB01DC017F
:1002900004C08D910190801921F441505040C8F75D
:1002A000881B990B08955E9825E32A95F1F75E9ACD
:1002B000E0E9F1E03197F1F760E070E0B5E3A5ED3A
:1002C00019C056955D984B2F4A95F1F75D9A4A2FC4
:1002D0004A95F1F74C9B50682F5F3F4F283031050E
:1002E00081F7FC01E60FF71F50836F5F7F4F60318E
:1002F000710521F050E020E030E0E3CF0895CF9386
:10030000DF93C4E7D1E001C02196FE0194919923C7
:1003100069F0892F80538A30B8F7903311F487E25F
:1003200002C0892F835160E042D1EECFDF91CF919F
:100330000895E4E2F1E003C08191882389F481E02B
:10034000E932F807C9F780912301853019F0893126
:1003500039F405C01092D8000C9400180895CFCF3E
:100360000895AF92BF92CF92DF92EF92FF920F93D8
:100370001F93CF93DF93EC0100E0FF2464E770E06C
:1003800053E2A52E51E0B52E46E0E42E31E0C32E17
:10039000D12C10922201F5018E2D11928A95E9F748
:1003A00050E080E020E030E0FE01E20FF31FB0817A
:1003B000A0912201482F182F185FFB01E40FF11DB7
:1003C0004F5F8491B0FF2FC0882369F187FF23C05E
:1003D00090E08F7790708830910549F089309105D1
:1003E00044F08930910569F00A97E9F411C001E001
:1003F0001AC0F60102C0EE0FFF1F8A95E2F7AE2B7E
:1004000012C0F0E064377F0771F464EF70E0C1CF91
:10041000FF24F39408C0563030F4E52FF0E0ED5D92
:10042000FE4F80835F5F411711F0B695C6CFA09352
:1004300022012F5F3F4F2031310511F0842FB4CFBF
:10044000002311F076DF01C06AD08091290190E08D
:10045000969587958170F81619F089E360E0A7D02A
:10046000DF91CF911F910F91FF90EF90DF90CF9090
:10047000BF90AF900895CF93DF9380E880936100A1
:100480001092610080E68AB980E78BB931D044D000
:100490008823E9F380E395E720E931E0F90131971A
:1004A000F1F70197D9F780E1E2E0F1E0DF011D9279
:1004B0008A95E9F7C0E4DCE982E191E0F4DE82E1CB
:1004C00091E062E071E040E150E0E0DE009761F031
:1004D00082E191E046DFA2E0B1E0E2E1F1E080E11B
:1004E00001900D928150E1F7CE010197F1F7E4CF31
:1004F00080EA8093D80086E089BD09B400FEFDCF74
:1005000080E88093D8001092E00010922A018CE0DD
:100510008093E2007894089580912A010895809153
:100520002A01882309F441C02FB7F89483E080930F
:10053000E9009091E4009E5C33E08091E80085FD45
:100540000EC02FBF80912A01882379F18091E400A9
:10055000891759F12FB7F8943093E900EECF8091C5
:1005600022018093F1001092F10080912301809389
:10057000F100809124018093F10080912501809306
:10058000F100809126018093F100809127018093F2
:10059000F100809128018093F1008AE38093E800C4
:1005A00010922B012FBF80E008958FEF0895609384
:1005B000220180932301B3DF882329F410922201C2
:1005C00010922301ACCF08951F920F920FB60F9295
:1005D00011242F938F939F938091E1001092E1005B
:1005E000982F83FF0FC01092E90081E08093EB0009
:1005F0001092EC0082E28093ED0088E08093F0009E
:1006000010922A0192FF44C080912A01882309F4A4
:100610003FC0209100012223D9F180912C018F5FEE
:1006200080932C0190E083709070892B89F583E092
:100630008093E9008091E80085FF2AC080912B011A
:100640008F5F80932B01821719F510922B018091F7
:1006500022018093F1001092F10080912301809398
:10066000F100809124018093F10080912501809315
:10067000F100809126018093F10080912701809301
:10068000F100809128018093F1008AE38093E800D3
:100690009F918F912F910F900FBE0F901F901895E3
:1006A0001F920F920FB60F9211240F931F932F9347
:1006B0003F934F935F936F937F938F939F93AF93EA
:1006C000BF93EF93FF931092E9008091E80083FFBE
:1006D0005BC14091F1003091F1008091F100682FF1
:1006E00070E02091F100922F80E0682B792B8091AF
:1006F000F100A82FB0E02091F100922F80E0A82B0C
:10070000B92B1091F1000091F10082EF8093E80085
:10071000363009F05AC026E831E0A9014550504072
:10072000F9013797859194918617970701F5FA019A
:10073000859194918A179B07D1F49A012E5F3F4FC0
:10074000F901659174912E5F3F4FF9014491212F7A
:1007500030E0902F80E0282B392B2F3F310519F006
:1007600010F02FEF30E0241758F4422F09C0295F12
:100770003F4F495F5F4FF1E0273B3F0789F604C1D8
:100780005EEF8091E800282F30E0C90185709070FD
:10079000892BB9F322FDFBC0342F413208F030E23F
:1007A000232FCB0106C0FC010196E491E093F100F8
:1007B00021502223C1F7630F711D431B5093E800A2
:1007C0004423F9F63032E9F2E2C0353061F48EEFBD
:1007D0008093E8008091E80080FFFCCF862F80683E
:1007E0008093E300D4C0393031F5442309F071C05F
:1007F00060932A018EEF8093E80080EB91E021E086
:100800002093E900FC010196E491E093EB00EE23D4
:1008100069F0AC014F5F5F4FFC0184918093EC0065
:10082000CA010196FA0134913093ED002F5F253013
:1008300039F78EE149C0383051F4403809F049C0E9
:100840008091E80080FFFCCF80912A017BC0332398
:10085000D1F48091E80080FFFCCF423811F080E0B5
:100860000DC0A093E9008091EB0090E025E0969503
:1008700087952A95E1F781701092E9008093F10045
:100880001092F1007DC0313011F0333011F542305B
:1008900001F561157105E9F42A2F2F77822F815018
:1008A0008430B8F48EEF8093E8002093E900333071
:1008B00009F46AC089E18093EB0081E090E002C016
:1008C000880F991F2A95E2F78093EA001092EA00B8
:1008D0005EC0AB2B09F058C0413AB9F5313009F58B
:1008E0008091E80080FFFCCF809122018093F1008D
:1008F0001092F100809123018093F10080912401F6
:100900008093F100809125018093F1008091260170
:100910008093F100809127018093F100809128015C
:1009200011C0323039F48091E80080FFFCCF809113
:10093000000108C0333041F58091E80080FFFCCF12
:10094000809101018093F1001BC04132E9F43930FC
:1009500061F48091E80082FFFCCF8091F1008093E8
:1009600029018BEF8093E8000BC03A3029F4709393
:10097000000110922B0104C03B3031F4609301015F
:100980008EEF8093E80003C081E28093EB00FF913B
:10099000EF91BF91AF919F918F917F916F915F91F7
:1009A0004F913F912F911F910F910F900FBE0F907C
:0809B0001F901895F894FFCF89
:0209B8007D01BF
:00000001FF
