:1000000023C100003CC100003AC1000038C100001B
:1000100036C1000034C1000032C1000030C1000010
:100020002EC100002CC100002AC10000B5C2000092
:100030000FC3000024C1000022C1000020C1000045
:100040001EC100001CC100001AC1000018C1000040
:1000500016C1000014C1000012C1000010C1000050
:100060000EC100000CC100000AC1000008C1000060
:1000700006C1000000838A418284514E890000003D
:100080003A6040802C504F4D0000001D060510378F
:10009000854B3F000000811B191136385245000086
:1000A000004C16090B0E33284A0000003B04070AD7
:1000B0000D0F345F0000003C1A151C0C13305E005D
:1000C00000002B14081718122F2A000000551F21BA
:1000D0002325272E310000001E202224262D3556F0
:1000E00000000029625C5B5A433D3E0000000000B6
:1000F0000000000000838A4182846342890000007E
:100100003A6040802C8657590000001D06051037C4
:1001100085543F000000811B191136385D450000F1
:10012000004C16090B0E3328440000003B04070A5C
:100130000D0F345F0000003C1A151C0C13305E00DC
:1001400000002B14081718122F2A000000551F2139
:100150002325272E310000001E202224262D35566F
:1001600000000029625C5B5A433D3E000000000035
:10017000000000000001000030021200020000CF69
:10018000012200220000F1013F00210000E10109ED
:1001900000030000CB010401030904B901100203AC
:1001A0000904A5011212034B006500790062006F7B
:1001B00000610072006400000010034D00660067DB
:1001C000004E0061006D0065000000040309040991
:1001D000022200010100C0320904000001030101F4
:1001E00000092111010001223F00070583030800D7
:1001F0000105010906A10175019508050719E02906
:10020000E7150025018102950175088103950575A3
:1002100001050819012905910295017503910395BE
:10022000067508150025680507190029688100C0B2
:100230001201000200000020C0167C04000101022F
:100240000001000001C1060011241FBECFEFD2E063
:10025000DEBFCDBF11E0A0E0B1E0E6E2F9E002C010
:1002600005900D92A230B107D9F711E0A2E0B1E0FC
:1002700001C01D92AD32B107E1F7F3D052C3C0CE39
:1002800080E68AB980E78BB908955E9825E32A95C0
:10029000F1F700005E9AEFE8F1E03197F1F700C066
:1002A0000000FC0120E030E088E090E040E046956E
:1002B0005D9855E25A95F1F700005D9A55ED5A9513
:1002C000F1F700004C9B4068019789F741932F5F3D
:1002D0003F4F2031310541F708951092D8000C941A
:1002E000001808953F924F925F926F927F928F9283
:1002F0009F92AF92BF92CF92DF92EF92FF920F93B5
:100300001F93CF93DF9300D000D01F92CDB7DEB7FD
:1003100004EF10E0912C612C43E2C42E41E0D42E76
:1003200056E0452EAA24A394B12C10922901F6017F
:10033000242D11922A95E9F7BC01E12CF12C20E043
:10034000812CFB017190BF0138E0532E520EF80151
:10035000E20FF11D349070FE2BC0213081F02E3160
:1003600081F4662071F029836A837B838C839D836B
:10037000B4DF29816A817B818C819D8102C06624E2
:1003800063943320A9F037FE4BC0E32DEF77E930BB
:1003900009F43FC0C8F5E83058F4A50102C0440F85
:1003A000551FEA95E2F730912901342B309329014A
:1003B00076942F5F2511CBCFFFEFEF1AFF0A30E1C4
:1003C000E316F10409F0BDCFA2D0809122018695F9
:1003D0008170981679F160E089E30F900F900F908B
:1003E0000F900F90DF91CF911F910F91FF90EF90A1
:1003F000DF90CF90BF90AF909F908F907F906F9045
:100400005F904F903F90BBC0EA3091F6992493944F
:10041000CFCF50E0043F150759F604E710E085CF31
:10042000E5E0E81528F2A82DB0E0AD5DBE4F3C92A6
:100430008394BECF0F900F900F900F900F90DF918D
:10044000CF911F910F91FF90EF90DF90CF90BF90D1
:10045000AF909F908F907F906F905F904F903F9064
:10046000089580E8809361001092610009DF38D020
:100470004BD08823E9F32FEF8BE792E9215080409E
:100480009040E1F700C0000080E1E2E1F1E0DF012F
:100490001D928A95E9F7C0E182E091E0F6DE40E145
:1004A00050E062E171E082E091E02ED2892B61F0B0
:1004B00082E091E017DFE2E0F1E0A2E1B1E08C2F11
:1004C00001900D928A95E1F78FE39CE90197F1F78E
:1004D00000C00000E1CF8091E80080FFFCCF0895CC
:1004E00080EA8093D80086E089BD09B400FEFDCF84
:1004F00080E88093D8001092E00010922C018CE0EC
:100500008093E2007894089580912C010895809161
:100510002C01811102C08FEF08958FB7F89493E0FA
:100520009093E9009091E4009E5C23E03091E80014
:1005300035FD0EC08FBF80912C01882361F380911F
:10054000E400891741F38FB7F8942093E900EECFC8
:10055000909129019093F1001092F100E3E2F1E013
:1005600091919093F10091E0E932F907C9F79AE38C
:100570009093E80010922B018FBF80E00895609364
:10058000290180932301C3DF811105C01092290145
:1005900010922301BCCF08951F920F920FB60F92B5
:1005A00011248F939F93EF93FF938091E10010921A
:1005B000E10083FF0FC01092E90091E09093EB00FF
:1005C0001092EC0092E29093ED0098E09093F0008E
:1005D00010922C0182FF33C080912C01882379F185
:1005E00080910001882359F180912A018F5F8093C7
:1005F0002A01837021F583E08093E9008091E8006F
:1006000085FF1DC080912B018F5F80932B019091FE
:100610000001891314C010922B018091290180934D
:10062000F1001092F100E3E2F1E081918093F1009A
:1006300081E0E932F807C9F78AE38093E800FF9187
:10064000EF919F918F910F900FBE0F901F90189573
:100650001F920F920FB60F921124EF92FF920F93F9
:100660001F932F933F934F935F936F937F938F933A
:100670009F93AF93BF93EF93FF93CF93DF931F921B
:10068000CDB7DEB71092E9008091E80083FF21C169
:100690009091F1008091F1003091F1002091F100F2
:1006A000E32EF12CF22A0091F1002091F10010E0EC
:1006B000122B2091F1006091F10032EF3093E800AD
:1006C000863009F046C037E084E791E0FC014591AF
:1006D00054914E155F0539F4FC01329645915491C1
:1006E0004017510721F00796315081F7F2C0FC0105
:1006F000349645915491FC013696849130E0362B26
:100700002F3F310519F010F02FEF30E0281708F4D3
:10071000822F3EEF9091E800292F2570D9F392FDAA
:10072000DBC0982F813208F090E2FA01292F2223B2
:1007300031F064916093F10021503196F8CF490F68
:10074000511D891B3093E8008111E4CF903211F3E1
:10075000C3C0853049F48EEF8093E800BCDE8E2D57
:1007600080688093E300B8C0893041F5911146C09C
:10077000E0922C018EEF8093E80041E082E492E069
:100780004093E9009C012F5F3F4FFC01549150932F
:10079000EB00552361F0F90124912093EC009C01BA
:1007A0002D5F3F4FFC01329684918093ED004F5FA7
:1007B000453011F0C901E4CF8EE141C0883039F4F1
:1007C000903809F041C087DE80912C0160C0811112
:1007D00015C0998380DE9981923851F40093E90025
:1007E0008091EB0085FB882780F91092E90001C019
:1007F00080E08093F1001092F10067C0282F2D7FD8
:10080000213011F5923001F5EF2809F062C00F7721
:100810009FEF900F943008F05CC09EEF9093E8003B
:100820000093E900833009F454C089E18093EB0020
:1008300081E090E0002E01C0880F0A94EAF78093CF
:10084000EA001092EA0048C0012B09F042C0913A38
:1008500009F5813089F43FDE809129018093F10010
:100860001092F100E3E2F1E081918093F10081E0E8
:10087000E932F807C9F729C0823021F42CDE8091D3
:10088000000105C0833029F526DE809101018093A7
:10089000F1001BC09132E9F4893061F48091E800E5
:1008A00082FFFCCF8091F100809322018BEF809337
:1008B000E8000BC08A3029F4F092000110922B015D
:1008C00004C08B3031F4E09201018EEF8093E80098
:1008D00003C081E28093EB000F90DF91CF91FF91F5
:1008E000EF91BF91AF919F918F917F916F915F91A8
:1008F0004F913F912F911F910F91FF90EF900F908B
:100900000FBE0F901F901895FB01DC0104C08D9164
:100910000190801921F441505040C8F7881B990B71
:060920000895F894FFCFDA
:020926007D0151
:00000001FF
